{
  "_format": "hh-sol-artifact-1",
  "contractName": "DiplomaCert",
  "sourceName": "contracts/DiplomaCert.sol",
  "abi": [
    {
      "inputs": [],
      "stateMutability": "nonpayable",
      "type": "constructor"
    },
    {
      "anonymous": false,
      "inputs": [
        {
          "indexed": true,
          "internalType": "address",
          "name": "student",
          "type": "address"
        },
        {
          "indexed": false,
          "internalType": "string",
          "name": "ipfsHash",
          "type": "string"
        },
        {
          "indexed": false,
          "internalType": "uint256",
          "name": "timestamp",
          "type": "uint256"
        }
      ],
      "name": "DiplomaAdded",
      "type": "event"
    },
    {
      "anonymous": false,
      "inputs": [
        {
          "indexed": true,
          "internalType": "address",
          "name": "student",
          "type": "address"
        },
        {
          "indexed": false,
          "internalType": "uint256",
          "name": "timestamp",
          "type": "uint256"
        }
      ],
      "name": "DiplomaRevoked",
      "type": "event"
    },
    {
      "inputs": [
        {
          "internalType": "address",
          "name": "student",
          "type": "address"
        },
        {
          "internalType": "string",
          "name": "studentName",
          "type": "string"
        },
        {
          "internalType": "string",
          "name": "specialization",
          "type": "string"
        },
        {
          "internalType": "string",
          "name": "ipfsHash",
          "type": "string"
        }
      ],
      "name": "addDiploma",
      "outputs": [],
      "stateMutability": "nonpayable",
      "type": "function"
    },
    {
      "inputs": [],
      "name": "admin",
      "outputs": [
        {
          "internalType": "address",
          "name": "",
          "type": "address"
        }
      ],
      "stateMutability": "view",
      "type": "function"
    },
    {
      "inputs": [
        {
          "internalType": "address",
          "name": "",
          "type": "address"
        }
      ],
      "name": "diplomas",
      "outputs": [
        {
          "internalType": "string",
          "name": "studentName",
          "type": "string"
        },
        {
          "internalType": "string",
          "name": "specialization",
          "type": "string"
        },
        {
          "internalType": "uint256",
          "name": "issueDate",
          "type": "uint256"
        },
        {
          "internalType": "string",
          "name": "ipfsHash",
          "type": "string"
        },
        {
          "internalType": "bool",
          "name": "isValid",
          "type": "bool"
        }
      ],
      "stateMutability": "view",
      "type": "function"
    },
    {
      "inputs": [
        {
          "internalType": "address",
          "name": "student",
          "type": "address"
        }
      ],
      "name": "getDiploma",
      "outputs": [
        {
          "internalType": "string",
          "name": "studentName",
          "type": "string"
        },
        {
          "internalType": "string",
          "name": "specialization",
          "type": "string"
        },
        {
          "internalType": "uint256",
          "name": "issueDate",
          "type": "uint256"
        },
        {
          "internalType": "string",
          "name": "ipfsHash",
          "type": "string"
        },
        {
          "internalType": "bool",
          "name": "isValid",
          "type": "bool"
        }
      ],
      "stateMutability": "view",
      "type": "function"
    },
    {
      "inputs": [],
      "name": "getTotalGraduates",
      "outputs": [
        {
          "internalType": "uint256",
          "name": "",
          "type": "uint256"
        }
      ],
      "stateMutability": "view",
      "type": "function"
    },
    {
      "inputs": [
        {
          "internalType": "uint256",
          "name": "",
          "type": "uint256"
        }
      ],
      "name": "graduatesList",
      "outputs": [
        {
          "internalType": "address",
          "name": "",
          "type": "address"
        }
      ],
      "stateMutability": "view",
      "type": "function"
    },
    {
      "inputs": [
        {
          "internalType": "address",
          "name": "student",
          "type": "address"
        }
      ],
      "name": "revokeDiploma",
      "outputs": [],
      "stateMutability": "nonpayable",
      "type": "function"
    },
    {
      "inputs": [
        {
          "internalType": "address",
          "name": "newAdmin",
          "type": "address"
        }
      ],
      "name": "transferAdmin",
      "outputs": [],
      "stateMutability": "nonpayable",
      "type": "function"
    },
    {
      "inputs": [
        {
          "internalType": "address",
          "name": "student",
          "type": "address"
        }
      ],
      "name": "verifyDiploma",
      "outputs": [
        {
          "internalType": "bool",
          "name": "",
          "type": "bool"
        }
      ],
      "stateMutability": "view",
      "type": "function"
    }
  ],
  "bytecode": "0x608060405234801561001057600080fd5b5033600260006101000a81548173ffffffffffffffffffffffffffffffffffffffff021916908373ffffffffffffffffffffffffffffffffffffffff160217905550611694806100616000396000f3fe608060405234801561001057600080fd5b50600436106100935760003560e01c80635aaa06f1116100665780635aaa06f11461014c57806375829def1461016a57806376bfbef914610186578063b5099541146101b6578063f851a440146101d257610093565b80631275088c14610098578063391bd411146100cc5780634968870d146100e8578063529f615f14610118575b600080fd5b6100b260048036038101906100ad9190610d2c565b6101f0565b6040516100c3959493929190610e1d565b60405180910390f35b6100e660048036038101906100e19190610fba565b61044d565b005b61010260048036038101906100fd91906110a1565b610702565b60405161010f91906110dd565b60405180910390f35b610132600480360381019061012d9190610d2c565b610741565b604051610143959493929190610e1d565b60405180910390f35b61015461091c565b60405161016191906110f8565b60405180910390f35b610184600480360381019061017f9190610d2c565b610929565b005b6101a0600480360381019061019b9190610d2c565b610a6c565b6040516101ad9190611113565b60405180910390f35b6101d060048036038101906101cb9190610d2c565b610ac4565b005b6101da610c94565b6040516101e791906110dd565b60405180910390f35b606080600060606000806000808873ffffffffffffffffffffffffffffffffffffffff1673ffffffffffffffffffffffffffffffffffffffff1681526020019081526020016000206040518060a00160405290816000820180546102539061115d565b80601f016020809104026020016040519081016040528092919081815260200182805461027f9061115d565b80156102cc5780601f106102a1576101008083540402835291602001916102cc565b820191906000526020600020905b8154815290600101906020018083116102af57829003601f168201915b505050505081526020016001820180546102e59061115d565b80601f01602080910402602001604051908101604052809291908181526020018280546103119061115d565b801561035e5780601f106103335761010080835404028352916020019161035e565b820191906000526020600020905b81548152906001019060200180831161034157829003601f168201915b50505050508152602001600282015481526020016003820180546103819061115d565b80601f01602080910402602001604051908101604052809291908181526020018280546103ad9061115d565b80156103fa5780601f106103cf576101008083540402835291602001916103fa565b820191906000526020600020905b8154815290600101906020018083116103dd57829003601f168201915b505050505081526020016004820160009054906101000a900460ff161515151581525050905080600001518160200151826040015183606001518460800151955095509550955095505091939590929450565b600260009054906101000a900473ffffffffffffffffffffffffffffffffffffffff1673ffffffffffffffffffffffffffffffffffffffff163373ffffffffffffffffffffffffffffffffffffffff16146104dd576040517f08c379a00000000000000000000000000000000000000000000000000000000081526004016104d490611200565b60405180910390fd5b600015156000808673ffffffffffffffffffffffffffffffffffffffff1673ffffffffffffffffffffffffffffffffffffffff16815260200190815260200160002060040160009054906101000a900460ff16151514610572576040517f08c379a000000000000000000000000000000000000000000000000000000000815260040161056990611292565b60405180910390fd5b6040518060a00160405280848152602001838152602001428152602001828152602001600115158152506000808673ffffffffffffffffffffffffffffffffffffffff1673ffffffffffffffffffffffffffffffffffffffff16815260200190815260200160002060008201518160000190816105ef919061145e565b506020820151816001019081610605919061145e565b50604082015181600201556060820151816003019081610625919061145e565b5060808201518160040160006101000a81548160ff0219169083151502179055509050506001849080600181540180825580915050600190039060005260206000200160009091909190916101000a81548173ffffffffffffffffffffffffffffffffffffffff021916908373ffffffffffffffffffffffffffffffffffffffff1602179055508373ffffffffffffffffffffffffffffffffffffffff167f7e4ddf82a9bfcfc23ab2c4562ed9111f26701f1c0c05a384b7cb146ee4f5252782426040516106f4929190611530565b60405180910390a250505050565b6001818154811061071257600080fd5b906000526020600020016000915054906101000a900473ffffffffffffffffffffffffffffffffffffffff1681565b60006020528060005260406000206000915090508060000180546107649061115d565b80601f01602080910402602001604051908101604052809291908181526020018280546107909061115d565b80156107dd5780601f106107b2576101008083540402835291602001916107dd565b820191906000526020600020905b8154815290600101906020018083116107c057829003601f168201915b5050505050908060010180546107f29061115d565b80601f016020809104026020016040519081016040528092919081815260200182805461081e9061115d565b801561086b5780601f106108405761010080835404028352916020019161086b565b820191906000526020600020905b81548152906001019060200180831161084e57829003601f168201915b5050505050908060020154908060030180546108869061115d565b80601f01602080910402602001604051908101604052809291908181526020018280546108b29061115d565b80156108ff5780601f106108d4576101008083540402835291602001916108ff565b820191906000526020600020905b8154815290600101906020018083116108e257829003601f168201915b5050505050908060040160009054906101000a900460ff16905085565b6000600180549050905090565b600260009054906101000a900473ffffffffffffffffffffffffffffffffffffffff1673ffffffffffffffffffffffffffffffffffffffff163373ffffffffffffffffffffffffffffffffffffffff16146109b9576040517f08c379a00000000000000000000000000000000000000000000000000000000081526004016109b090611200565b60405180910390fd5b600073ffffffffffffffffffffffffffffffffffffffff168173ffffffffffffffffffffffffffffffffffffffff1603610a28576040517f08c379a0000000000000000000000000000000000000000000000000000000008152600401610a1f906115ac565b60405180910390fd5b80600260006101000a81548173ffffffffffffffffffffffffffffffffffffffff021916908373ffffffffffffffffffffffffffffffffffffffff16021790555050565b60008060008373ffffffffffffffffffffffffffffffffffffffff1673ffffffffffffffffffffffffffffffffffffffff16815260200190815260200160002060040160009054906101000a900460ff169050919050565b600260009054906101000a900473ffffffffffffffffffffffffffffffffffffffff1673ffffffffffffffffffffffffffffffffffffffff163373ffffffffffffffffffffffffffffffffffffffff1614610b54576040517f08c379a0000000000000000000000000000000000000000000000000000000008152600401610b4b90611200565b60405180910390fd5b600115156000808373ffffffffffffffffffffffffffffffffffffffff1673ffffffffffffffffffffffffffffffffffffffff16815260200190815260200160002060040160009054906101000a900460ff16151514610be9576040517f08c379a0000000000000000000000000000000000000000000000000000000008152600401610be09061163e565b60405180910390fd5b60008060008373ffffffffffffffffffffffffffffffffffffffff1673ffffffffffffffffffffffffffffffffffffffff16815260200190815260200160002060040160006101000a81548160ff0219169083151502179055508073ffffffffffffffffffffffffffffffffffffffff167f11e340929fa85308756882af0a6baf734e50e329b57728909e3185136d52975542604051610c8991906110f8565b60405180910390a250565b600260009054906101000a900473ffffffffffffffffffffffffffffffffffffffff1681565b6000604051905090565b600080fd5b600080fd5b600073ffffffffffffffffffffffffffffffffffffffff82169050919050565b6000610cf982610cce565b9050919050565b610d0981610cee565b8114610d1457600080fd5b50565b600081359050610d2681610d00565b92915050565b600060208284031215610d4257610d41610cc4565b5b6000610d5084828501610d17565b91505092915050565b600081519050919050565b600082825260208201905092915050565b60005b83811015610d93578082015181840152602081019050610d78565b60008484015250505050565b6000601f19601f8301169050919050565b6000610dbb82610d59565b610dc58185610d64565b9350610dd5818560208601610d75565b610dde81610d9f565b840191505092915050565b6000819050919050565b610dfc81610de9565b82525050565b60008115159050919050565b610e1781610e02565b82525050565b600060a0820190508181036000830152610e378188610db0565b90508181036020830152610e4b8187610db0565b9050610e5a6040830186610df3565b8181036060830152610e6c8185610db0565b9050610e7b6080830184610e0e565b9695505050505050565b600080fd5b600080fd5b7f4e487b7100000000000000000000000000000000000000000000000000000000600052604160045260246000fd5b610ec782610d9f565b810181811067ffffffffffffffff82111715610ee657610ee5610e8f565b5b80604052505050565b6000610ef9610cba565b9050610f058282610ebe565b919050565b600067ffffffffffffffff821115610f2557610f24610e8f565b5b610f2e82610d9f565b9050602081019050919050565b82818337600083830152505050565b6000610f5d610f5884610f0a565b610eef565b905082815260208101848484011115610f7957610f78610e8a565b5b610f84848285610f3b565b509392505050565b600082601f830112610fa157610fa0610e85565b5b8135610fb1848260208601610f4a565b91505092915050565b60008060008060808587031215610fd457610fd3610cc4565b5b6000610fe287828801610d17565b945050602085013567ffffffffffffffff81111561100357611002610cc9565b5b61100f87828801610f8c565b935050604085013567ffffffffffffffff8111156110305761102f610cc9565b5b61103c87828801610f8c565b925050606085013567ffffffffffffffff81111561105d5761105c610cc9565b5b61106987828801610f8c565b91505092959194509250565b61107e81610de9565b811461108957600080fd5b50565b60008135905061109b81611075565b92915050565b6000602082840312156110b7576110b6610cc4565b5b60006110c58482850161108c565b91505092915050565b6110d781610cee565b82525050565b60006020820190506110f260008301846110ce565b92915050565b600060208201905061110d6000830184610df3565b92915050565b60006020820190506111286000830184610e0e565b92915050565b7f4e487b7100000000000000000000000000000000000000000000000000000000600052602260045260246000fd5b6000600282049050600182168061117557607f821691505b6020821081036111885761118761112e565b5b50919050565b7f4f6e6c792061646d696e2063616e20706572666f726d2074686973206163746960008201527f6f6e000000000000000000000000000000000000000000000000000000000000602082015250565b60006111ea602283610d64565b91506111f58261118e565b604082019050919050565b60006020820190508181036000830152611219816111dd565b9050919050565b7f4469706c6f6d6120616c72656164792065786973747320666f7220746869732060008201527f73747564656e7400000000000000000000000000000000000000000000000000602082015250565b600061127c602783610d64565b915061128782611220565b604082019050919050565b600060208201905081810360008301526112ab8161126f565b9050919050565b60008190508160005260206000209050919050565b60006020601f8301049050919050565b600082821b905092915050565b6000600883026113147fffffffffffffffffffffffffffffffffffffffffffffffffffffffffffffffff826112d7565b61131e86836112d7565b95508019841693508086168417925050509392505050565b6000819050919050565b600061135b61135661135184610de9565b611336565b610de9565b9050919050565b6000819050919050565b61137583611340565b61138961138182611362565b8484546112e4565b825550505050565b600090565b61139e611391565b6113a981848461136c565b505050565b5b818110156113cd576113c2600082611396565b6001810190506113af565b5050565b601f821115611412576113e3816112b2565b6113ec846112c7565b810160208510156113fb578190505b61140f611407856112c7565b8301826113ae565b50505b505050565b600082821c905092915050565b600061143560001984600802611417565b1980831691505092915050565b600061144e8383611424565b9150826002028217905092915050565b61146782610d59565b67ffffffffffffffff8111156114805761147f610e8f565b5b61148a825461115d565b6114958282856113d1565b600060209050601f8311600181146114c857600084156114b6578287015190505b6114c08582611442565b865550611528565b601f1984166114d6866112b2565b60005b828110156114fe578489015182556001820191506020850194506020810190506114d9565b8683101561151b5784890151611517601f891682611424565b8355505b6001600288020188555050505b505050505050565b6000604082019050818103600083015261154a8185610db0565b90506115596020830184610df3565b9392505050565b7f496e76616c696420616464726573730000000000000000000000000000000000600082015250565b6000611596600f83610d64565b91506115a182611560565b602082019050919050565b600060208201905081810360008301526115c581611589565b9050919050565b7f4e6f2076616c6964206469706c6f6d612065786973747320666f72207468697360008201527f2073747564656e74000000000000000000000000000000000000000000000000602082015250565b6000611628602883610d64565b9150611633826115cc565b604082019050919050565b600060208201905081810360008301526116578161161b565b905091905056fea26469706673582212205dfd1e09fb31544bfd9e85e9b28d413b72443ed3f42340e4ac9c84b0e7162f6964736f6c63430008140033",
  "linkReferences": {},
  "deployedLinkReferences": {}
}